:020000040000fa
:080000000002040000000000f2
:020000040000fa
:0400080012030000df
:020000040000fa
:04000c0024030000c9
:020000040000fa
:040010003c030000ad
:020000040000fa
:040014001a030000cb
:020000040000fa
:040018002c030000b5
:020000040000fa
:04001c0034030000a9
:020000040000fa
:040020004403000095
:020000040000fa
:04002400ee040000e6
:020000040000fa
:04002800ee040000e2
:020000040000fa
:04002c00ee040000de
:020000040000fa
:04003000ee040000da
:020000040000fa
:04003400ee040000d6
:020000040000fa
:04003800ee040000d2
:020000040000fa
:04003c00ee040000ce
:020000040000fa
:04004000ee040000ca
:020000040000fa
:04004400ee040000c6
:020000040000fa
:04004800760400003a
:020000040000fa
:04004c00ee040000be
:020000040000fa
:04005000ee040000ba
:020000040000fa
:04005400ec030000b9
:020000040000fa
:040058008803000019
:020000040000fa
:04005c00ee040000ae
:020000040000fa
:04006000ee040000aa
:020000040000fa
:04006400ee040000a6
:020000040000fa
:04006800ce040000c2
:020000040000fa
:04006c00ae040000de
:020000040000fa
:04007000ee0400009a
:020000040000fa
:04007400ee04000096
:020000040000fa
:04007800ee04000092
:020000040000fa
:04007c00ee0400008e
:020000040000fa
:04008000ee0400008a
:020000040000fa
:04008400ee04000086
:020000040000fa
:04008800ee04000082
:020000040000fa
:04008c00ee0400007e
:020000040000fa
:04009000ee0400007a
:020000040000fa
:04009400ee04000076
:020000040000fa
:04009800ee04000072
:020000040000fa
:04009c00ee0400006e
:020000040000fa
:0400a000ee0400006a
:020000040000fa
:0400a400ee04000066
:020000040000fa
:0400a800ee04000062
:020000040000fa
:0400ac00ee0400005e
:020000040000fa
:0400b000ee0400005a
:020000040000fa
:0400b400ee04000056
:020000040000fa
:0400b800ee04000052
:020000040000fa
:0400bc00ee0400004e
:020000040000fa
:0400c000ee0400004a
:020000040000fa
:0400c400ee04000046
:020000040000fa
:0400c800ee04000042
:020000040000fa
:0400cc00ee0400003e
:020000040000fa
:0400d000ee0400003a
:020000040000fa
:0400d400ee04000036
:020000040000fa
:0400d800ee04000032
:020000040000fa
:0400dc00ee0400002e
:020000040000fa
:0400e000ee0400002a
:020000040000fa
:0400e400ee04000026
:020000040000fa
:0400e800ee04000022
:020000040000fa
:0400ec00ee0400001e
:020000040000fa
:0400f000ee0400001a
:020000040000fa
:0400f400ee04000016
:020000040000fa
:0400f800ee04000012
:020000040000fa
:0400fc00ee0400000e
:020000040000fa
:04010000ee04000009
:020000040000fa
:04010400ee04000005
:020000040000fa
:04010800ee04000001
:020000040000fa
:04010c00ee040000fd
:020000040000fa
:04011000ee040000f9
:020000040000fa
:04011400ee040000f5
:020000040000fa
:04011800ee040000f1
:020000040000fa
:04011c00ee040000ed
:020000040000fa
:04012000ee040000e9
:020000040000fa
:04012400ee040000e5
:020000040000fa
:04012800ee040000e1
:020000040000fa
:04012c005c0400006f
:020000040000fa
:04013000ee040000d9
:020000040000fa
:04013400ee040000d5
:020000040000fa
:04013800ee040000d1
:020000040000fa
:04013c00ee040000cd
:020000040000fa
:04014000ee040000c9
:020000040000fa
:04014400ee040000c5
:020000040000fa
:04014800ee040000c1
:020000040000fa
:04014c00ee040000bd
:020000040000fa
:04015000ee040000b9
:020000040000fa
:04015400ee040000b5
:020000040000fa
:04015800ee040000b1
:020000040000fa
:04015c00ee040000ad
:020000040000fa
:04016000ee040000a9
:020000040000fa
:04016400ee040000a5
:020000040000fa
:04016800ee040000a1
:020000040000fa
:04016c00ee0400009d
:020000040000fa
:04017000ee04000099
:020000040000fa
:04017400ee04000095
:020000040000fa
:04017800ee04000091
:020000040000fa
:04017c00ee0400008d
:020000040000fa
:04018000ee04000089
:020000040000fa
:04018400ee04000085
:020000040000fa
:04018800ee04000081
:020000040000fa
:04018c00ee0400007d
:020000040000fa
:04019000ee04000079
:020000040000fa
:04019400ee04000075
:020000040000fa
:04019800ee04000071
:020000040000fa
:04019c00ee0400006d
:020000040000fa
:0401a000ee04000069
:020000040000fa
:0401a400ee04000065
:020000040000fa
:0401a800ee04000061
:020000040000fa
:0401ac00ee0400005d
:020000040000fa
:0401b000ee04000059
:020000040000fa
:0401b400ee04000055
:020000040000fa
:0401b800ee04000051
:020000040000fa
:0401bc00ee0400004d
:020000040000fa
:0401c000ee04000049
:020000040000fa
:0401c400ee04000045
:020000040000fa
:0401c800ee04000041
:020000040000fa
:0401cc00ee0400003d
:020000040000fa
:0401d000ee04000039
:020000040000fa
:0401d400ee04000035
:020000040000fa
:0401d800ee04000031
:020000040000fa
:0401dc00ee0400002d
:020000040000fa
:0401e000ee04000029
:020000040000fa
:0401e400ee04000025
:020000040000fa
:0401e800ee04000021
:020000040000fa
:0401ec00ee0400001d
:020000040000fa
:0401f000ee04000019
:020000040000fa
:0401f400ee04000015
:020000040000fa
:0401f800ee04000011
:020000040000fa
:0401fc00ee0400000d
:020000040000fa
:04020000ee04000008
:020000040000fa
:04020400ee04000004
:020000040000fa
:04020800ee04000000
:020000040000fa
:04020c00ee040000fc
:020000040000fa
:04021000ee040000f8
:020000040000fa
:04021400ee040000f4
:020000040000fa
:04021800ee040000f0
:020000040000fa
:04021c00ee040000ec
:020000040000fa
:04022000ee040000e8
:020000040000fa
:04022400ee040000e4
:020000040000fa
:04022800ee040000e0
:020000040000fa
:04022c00ee040000dc
:020000040000fa
:04023000ee040000d8
:020000040000fa
:04023400ee040000d4
:020000040000fa
:04023800ee040000d0
:020000040000fa
:04023c00ee040000cc
:020000040000fa
:04024000ee040000c8
:020000040000fa
:04024400ee040000c4
:020000040000fa
:04024800ee040000c0
:020000040000fa
:04024c00ee040000bc
:020000040000fa
:04025000ee040000b8
:020000040000fa
:04025400ee040000b4
:020000040000fa
:04025800ee040000b0
:020000040000fa
:04025c00ee040000ac
:020000040000fa
:04026000ee040000a8
:020000040000fa
:04026400ee040000a4
:020000040000fa
:04026800ee040000a0
:020000040000fa
:04026c00ee0400009c
:020000040000fa
:04027000ee04000098
:020000040000fa
:04027400ee04000094
:020000040000fa
:04027800ee04000090
:020000040000fa
:04027c00ee0400008c
:020000040000fa
:04028000ee04000088
:020000040000fa
:04028400ee04000084
:020000040000fa
:04028800ee04000080
:020000040000fa
:04028c00ee0400007c
:020000040000fa
:04029000ee04000078
:020000040000fa
:04029400ee04000074
:020000040000fa
:04029800ee04000070
:020000040000fa
:04029c00ee0400006c
:020000040000fa
:0402a000ee04000068
:020000040000fa
:0402a400ee04000064
:020000040000fa
:0402a800ee04000060
:020000040000fa
:0402ac00ee0400005c
:020000040000fa
:0402b000ee04000058
:020000040000fa
:0402b400ee04000054
:020000040000fa
:0402b800ee04000050
:020000040000fa
:0402bc00ee0400004c
:020000040000fa
:0402c000ee04000048
:020000040000fa
:0402c400ee04000044
:020000040000fa
:0402c800ee04000040
:020000040000fa
:0402cc00ee0400003c
:020000040000fa
:0402d000ee04000038
:020000040000fa
:0402d400ee04000034
:020000040000fa
:0402d800ee04000030
:020000040000fa
:0402dc00ee0400002c
:020000040000fa
:0402e000ee04000028
:020000040000fa
:0402e400ee04000024
:020000040000fa
:0402e800ee04000020
:020000040000fa
:0402ec00ee0400001c
:020000040000fa
:0402f000ee04000018
:020000040000fa
:0402f400ee04000014
:020000040000fa
:0402f800ee04000010
:020000040000fa
:0402fc00ee0400000c
:020000040000fa
:04030000ee04000007
:020000040000fa
:04030400ee04000003
:020000040000fa
:04030800ee040000ff
:020000040000fa
:04030c00ee040000fb
:020000040000fa
:04031000ee040000f7
:020000040000fa
:100400006f2a21000eff24000e018800000000006a
:10041000000020000000e000020032000001200087
:1004200020028800140007007c0107000000e000a3
:1004300003003a008035250001002000020037004b
:100440000000200001002000810f70000100320038
:100450000f000700000020000000e0000200320052
:1004600000000200000000006431020000000000f3
:100470000040da000000fe00403320000000e000f1
:1004800002003200002020009001880000000600d9
:10049000a1028800800478000000eb001f003700f4
:1004a000e284440054a0b4009905ba00e2844400f8
:1004b00054a0b4009906ba00e284440054a0b400e9
:1004c0000006eb00476fde00fd07b200ae018800ba
:1004d000636ce10003003a000ad801000000eb0061
:1004e0000e003700606ce10008003a00004deb00a0
:1004f0000a05e800020039003420ec000af0a000f0
:100500008b05e900f9ff3e00040037006168e10057
:10051000010032000086eb000b00070019c7ba008b
:100520000e04e0001905ba0003003a000a00e000da
:10053000dbff3a0000000600fe07b200ae028800b2
:100540008a047800f5ff37000cd0a300e20f4d00bd
:100550001c003b0089027800354dba000a05e8000e
:10056000020039003420ec000af0a0008b05e900fd
:100570000f003200254dba000a05e80002003900dc
:100580003420ec000af0a0008b05e90008003200de
:100590000c00e0000600320015cdba000a05e800a4
:1005a000020039003420ec000af0a0008b05e900bd
:1005b0008984e80054a0b4000b00e000e2ff3a0098
:1005c000000006009902ba00055d78008b05e9007d
:1005d000f7ff3200c82ade00055d78008b05e900d0
:1005e000f3ff32000c00e000f1ff320019ddba0029
:1005f000eeff37007a56040000000000504404006b
:10060000000000007244040000000000ee520400ec
:1006100000000000683a04000000000022190400f5
:10062000000000003600f800c028a9000000eb0020
:10063000502a07003600f800522a0700c048a900d7
:10064000100020004b2a07003600f800c068a900ff
:1006500020002000472a07003600f800c088a900c3
:1006600030002000432a07003600f800c0a8a90087
:10067000400020003f2a07003600f800c608a90005
:10068000700020003b2a07003600f800204680005a
:100690004800de00614060000004e000030032001a
:1006a000c508a900c0002000322a070020468000ab
:1006b0004f00de00004078000004e000030032003c
:1006c000c5e8a900800020002a2a070020468000f3
:1006d0004500de00614060000004e00003003200dd
:1006e000c4a8a90090002000222a0700204680000c
:1006f0004400de00614060000004e00003003200be
:10070000c488a900a00020001a2a0700ffff3700b4
:100710003600f800809fbe00829fbe00849fbe000e
:10072000869fbe000000fa00c08280000000e0004a
:1007300002003200c082800000000100a18280001f
:1007400090828000808f500002003a002188a9002a
:10075000190037000188a90010003700a08280002e
:100760008000e800a1828800104078000080fb0033
:1007700020118800a182800050292100808f500024
:1007800002003a00c0282100a0828800a1828000d7
:1007900090828000808f500006003200101180008f
:1007a0004900de0061406000e14f5000ebff3a007d
:1007b0000100370000000000000000000080fa0087
:1007c0004f03be004f02be004f01be004f00be00ef
:1007d0003600f900004006003600f800809fbe0099
:1007e000829fbe00849fbe00869fbe000000fa006c
:1007f000d08280000000e00002003200d082800041
:10080000000001000168a9001e00370031118000be
:1008100070828000814078000148780071828000f9
:10082000d0292100808f50000900320070828000a2
:100830008000e80080828000808f50000400320039
:10084000708280000000e800708288000d00370090
:1008500071828000d0292100808f500007003a006b
:100860008182800050292100808f500003003200d7
:1008700050292100708288000200370010c0b300a8
:1008800056f0b70010118000004078006140600011
:10089000e14f5000ddff3200000000000080fa0050
:1008a0004f03be004f02be004f01be004f00be000e
:1008b0003600f90000400600801f78000000fa00b2
:1008c000101180000000d10061406000e14f500035
:1008d00001003a002222a9000828a9000000000017
:1008e0000080fa004f007800004006003600f80053
:1008f000809fbe00829fbe00849fbe00869fbe0078
:100900000000fa00708380000000e0000200320066
:100910007083800000000100202a21001040900018
:100920008040e800202a210011409800202a210060
:1009300011c0b300014878000108a90000000000c0
:100940000080fa004f03be004f02be004f01be0000
:100950004f00be003600f900004006003600f800e7
:10096000809fbe00829fbe00849fbe00869fbe0007
:100970000000fa0030838000000001000000000049
:100980000080fa004f03be004f02be004f01be00c0
:100990004f00be003600f900004006003600f800a7
:1009a000809fbe00829fbe00849fbe00869fbe00c7
:1009b0000000fa00408380000000010000000000f9
:1009c0000080fa004f03be004f02be004f01be0080
:1009d0004f00be003600f900004006000040da007b
:1009e0000000fe00f03fb1000180b10006003500bc
:1009f000ee03090000000000403fb1000180b1009b
:100a0000fbff3d001000b000203fb00002003500a9
:100a10000080090000000000000006000000050042
:100a20006022b800060220000000d0008180d200c1
:100a30000482d2008582d2000000a000020252008f
:100a400083825a00030031000202420083824a007e
:100a50000000a1000603e900f3ff3a0000000600d1
:100a60004f02b000889fbe008a9fbe008c9fbe00d0
:100a70008e1f7800d4b79f00e5b79f00f6b79f00a0
:100a800087bf9f0004042000c4b79f000006eb004e
:100a90006044b8006055b80088b79f0099b79f00c0
:100aa000aab79f00bbb79f000c0746000fb4970082
:100ab0009fb497002fb59700bfb597004f5ade003f
:100ac0008e0672000802440089824c000a034d0021
:100ad0008b834d004f1cde006055b8008004eb0096
:100ae00008027200898272000a0373008b8373000c
:100af000c4af9f00d5af9f00e6af9f00f7af9f0048
:100b000000044000818448000205490083854900b3
:100b100088af9f0099af9f00aaaf9f00bbaf9f0017
:100b20000800be000a01be000c00e0002d003d00e0
:100b3000450007000440e10005c8e10006d0e100df
:100b400007d8e1003e0036000d06e8000c00e0008a
:100b50000b00350010002000010020006011b800db
:100b60000fac97009fac97002fad9700bfad9700db
:100b7000000074008180740002017500838175009b
:100b8000cfb497008904e900c9b79f000900e000cd
:100b9000c5ff3a000c00e00005003d000fb29700d1
:100ba0009fb297002fb39700bfb3970026000700ae
:100bb000cfa497000900e00004003a000fb09700ae
:100bc0009fb097002fb19700bfb197004f077800f3
:100bd0004f06be004f05be004f04be004f02b100dd
:100be00000000600250007005fb49700efb49700ef
:100bf0007fb597008fbd97000802520089825a0086
:100c00000a035b008b835b0084b79f0095b79f004e
:100c1000a6b79f00b7b79f001c0020001700070071
:100c20000820e10009a8e1000ab0e1000bb8e100ea
:100c3000010039000006eb000c865600c3ff3700a8
:100c40000d067800c1ff37003fb49700cfb497007e
:100c50005fb59700efb597000802420089824a000d
:100c60000a034b008b834b00e4af9f00f5af9f005e
:100c700086b79f0097b79f00000006002faa970035
:100c8000bfaa97004fab9700dfab970000000600ac
:100c9000881f780018002000881f780070ff070068
:100ca0008f87e9004f04780000000600801feb00ea
:100cb0006bff07008f87e90000000600881f78009f
:100cc000e00f5000e08f5800e00f5900e08f59000e
:100cd0000c003d0011000700180020001400070060
:100ce00002003d00170007000004eb00e8ff0700ca
:100cf0000800e00001003200080007004f047800ff
:100d0000000006000004eb0009000700f7ff3d00ab
:100d10000c00070018002000f4ff370060001000ee
:100d2000e080180060011900e08119000000060051
:100d3000e00f5200e08f5a00e00f5b00e08f5b0095
:100d40000000060060021200e0821a0060031b002f
:100d5000e0831b0000000600889fbe008a9fbe0043
:100d6000e00f5200e08f5a00e00f5b00e08f5b0065
:100d700004003d0060021200e0821a0060031b00c4
:100d8000e0831b000004eb00e00f5000e08f5800f0
:100d9000e00f5900e08f590002003d0008000700f5
:100da00018002000c1ff07000800e0000100320029
:100db000030007004f05be004f04be000000060000
:100dc00060001000e080180060011900e081190047
:100dd00000000600881f78000004eb00e00f5000c0
:100de000e08f5800e00f5900e08f590002003d00ed
:100df0001100070018002000e00f5200e08f5a0099
:100e0000e00f5b00e08f5b0005003d006002120018
:100e1000e0821a0060031b00e0831b0061046c0089
:100e20000a0007000800e00001003200020007008d
:100e30004f0478000000060060001000e0801800f9
:100e400060011900e081190000000600889fbe00c3
:100e50008a9fbe008c9fbe000404b8000506b8003f
:100e60008904460060854e000606b8000a05460063
:100e7000e0854e000706b8008b054600040eb8005a
:100e8000890446000a854e00e0854d00050eb80035
:100e90000a0546008b854e00060eb8008b054600fd
:100ea0000416b8000a0546008b854e000516b800ea
:100eb0008b054600041eb8008b0546000800be00e6
:100ec0000a01be004f06be004f05be004f04be0023
:100ed000000006008001e90002814000828f50007e
:100ee00001003a0000000600b1697800fbff3700fe
:100ef000800078000108a3000f003a00010278008a
:100f0000b4017800f2ef2f00030141008381ea0071
:100f10000301610003082800030161000200e000f2
:100f20000c003200010178003204e00005003200bc
:100f300082007800fbff3700010178003204e000f6
:100f400002003a0000805000000006008200780095
:100f5000e8ff370084007800e8ff37000000fa005f
:100f600068815700cfb89700860107000080fa001b
:100f700000000600060007005d000700970007005c
:100f8000bf000700e90007009d040700290437009f
:100f9000e4874700889fbe008a9fbe008c9fbe00ea
:100fa0008e1f7800000678000104780091069000fa
:100fb00021059000110778008ebf9f00b1059000b9
:100fc000120278009202900022039000b203900077
:100fd0000400be000601be004f98de00e104600080
:100fe0000900e0003f00320060021200e0821a00b7
:100ff00060031b00e0831b000d00e00008003500cb
:10100000708057000e0878001010a1000900e00061
:1010100003003a000fb897000028a3002600320012
:101020008a00e900f0815700a20020000800780043
:10103000610307000900e00003003a008fb8970041
:101040000128a300200032000000e900d1c2b30053
:101050000900e00001003a00b1c2b3000081450080
:1010600001497800e80044001101e9000001510045
:10107000808045000fba97008a0178000c00780044
:10108000580107009c0090000188a3000400320072
:1010900098009000810f500001003d000100780091
:1010a0004f0778004f06be004f05be004f04be003c
:1010b0004f00b100000006000038a300d8ff3a003e
:1010c0008a007800d7ff37000138a300e5ff32001f
:1010d0000000e9008080450002c2b3008248780029
:1010e000e0ff37000d00e000c5ff3d00c9ff3700fd
:1010f0000200fa00889fbe008a9fbe0000057800ab
:1011000001047800a105900011007800b0bf9f0095
:10111000b1049000910090000100e0000300350050
:10112000ea805700800878001110a10012027800b0
:101130009202900022039000b2039000ea815700cf
:10114000820020008b007800080078001a03070056
:101150003fb99700f00061000100e0000400320098
:101160000000e9008080440002c3b3008248780098
:101170003fb99700e80061000100e0000400320080
:101180000000e9008080440002c2b3008248780079
:10119000e80044001101e900000151008080440092
:1011a0003fba97008b0178000a0078000d01070014
:1011b0009a0090000188a30004003200980090007b
:1011c000810f500001003d00010078004f05be0076
:1011d0004f04be000080fa0000000600ea874700c6
:1011e000889fbe008a9fbe008e1f78008004780012
:1011f000020778000300780082e2260053c7260029
:10120000f2b79f0083bf9f00c296220092bf9f004b
:101210000041eb00c2f79f001104900021059000ef
:10122000910578000e00e00001003a007287570037
:101230000000e00002003a000e0078002cff0700da
:101240000800e00003003500880f50000100360060
:10125000080078000b0278008a017800000178000d
:101260008e00780009007800de0007004f07780044
:101270004f05be004f04be00af00b10000000600e5
:101280000200fa00889fbe008a9fbe000005780019
:1012900001047800a105900011007800b0bf9f0004
:1012a000b1049000910090000100e00003003500bf
:1012b000ea805700800878001110a100120278001f
:1012c0009202900022039000b2039000ea8157003e
:1012d000a20020008b00780008007800b60207000a
:1012e000e80044001101e900000151008080440041
:1012f0003fba97008b0178000a007800b900070018
:101300009a0090000188a300040032009800900029
:10131000810f500001003d00010078004f05be0024
:101320004f04be000080fa0000000600fa87470064
:10133000889fbe008a9fbe008c9fbe008e1f7800d3
:10134000e0af9f000105780082bf9f00a3df9f00f0
:1013500091009000aa0690009a057800ba049000c7
:101360000100e0005b0035000b10a10070816500fa
:1013700082b79f000fb99700120278009202900086
:1013800022039000b20390008fb197000300e000a9
:1013900052003200e00f5200e08f5a00e00f5b0075
:1013a000e08f5b004d0032000d86e900688165002a
:1013b000f2af9f000200e000010032000c06e900dd
:1013c000680045001004e900088044000048eb0074
:1013d00001077800e10f54000d003400e00f5200c7
:1013e000e08f5a00e00f5b00e08f5b003d003a00a9
:1013f0000e00e0003b003c00010056000e004000e3
:101400000000e000020034000b18a30035003a0091
:101410000fb297000400e000110032000fba9700ed
:10142000140078009400900024019000b401900012
:10143000e00f5000e08f5800e00f5900e08f590096
:101440000700320008804400afd8970071f89f0071
:101450000884e9000880440001c3b3000148780013
:101460007fa997000200e000040032000804e900b0
:101470000880440001c2b3000148780068004500bc
:101480001001e90008015100888044000b02780037
:101490008d0178006fa8970052000700efa9970010
:1014a000930090000188a300040032009a0090008d
:1014b000810f500001003d00010078004f077800c7
:1014c0004f06be004f05be004f04be00af01b10085
:1014d0000000060011002000a4ff37000d06780070
:1014e000b2ff37000804e9006f006200e90f500006
:1014f00022003c000003b000afd997008301fb003d
:10150000f2fb2f0003014100f90f510010003e00d3
:10151000800178000350a0001306b100f98f51003c
:101520000b003e00d1b79f0094b79f00a5b79f0066
:10153000b6b79f00c7b79f0099030700cfb39700c6
:101540003fb39700afb297001fb29700dfb097008c
:1015500088814400804978000e07e900430020009c
:101560008703d1000683d3008582d3000482d30091
:101570008301e900faff3a0096ff37007005b000da
:10158000ddff37008201780001017800f1ff2700bc
:101590006f023700889fbe0000047800c0049000ee
:1015a000828f540001003600820478000900e000b8
:1015b0000a003200090178005800900045fe07003b
:1015c0006a0044001080440050049800c800900055
:1015d00089845000490498000048eb004f04be0085
:1015e00000000600f2874700889fbe008a9fbe0069
:1015f0008c9fbe008e1f78000005780001067800e1
:101600000204be00e10562000b00e00002003a00a7
:10161000828f51000e003e00080178008c00780097
:101620000a007800dbff0700888f540008003e00a6
:1016300088047800090078004f0778004f06be0044
:101640004f05be004f04be002f01b1000000060090
:10165000888654000d0778000d017800f08f560041
:101660000100360002012000010220007e805700a8
:10167000ca010700ef0f57000e003e004469de006c
:1016800000ff2f008091b9000d014100fe8057003e
:101690000a007800bfff07000b00e000e5ff3a00fa
:1016a000080178008c0078000a007800b9ff070074
:1016b000e0ff370002012000fe8057000a0078009a
:1016c000b4ff070070075700eaff3700000005006d
:1016d00000000500000005008040eb008181fb0058
:1016e00083814100622721000301410012427800fa
:1016f0000404e00003003a009240900001407800aa
:101700000000060090017800934f520005003a0057
:10171000924090000308e800eacf5000efff360047
:10172000f6ff37008140e800fbff37009400fa0025
:10173000889fbe008a9fbe008c9fbe000005780077
:1017400082047800118f98008005eb009e8890003d
:101750001104e0000a013200000820000001eb0043
:10176000023778008081eb00138798002287980069
:101770003e879800408798000004eb0008804000f6
:10178000104078000004e0000300320052c2b300b1
:10179000824f500028003a000800e00006003200a6
:1017a000080178000a0078007aff07001e88900080
:1017b00008004000108f98009e8e900050c2b30029
:1017c0009d4f1000e8003a008d06e8001d8f98003c
:1017d0001e88900090407800b2c2b30082cf5000c3
:1017e0001e00320082cf500028003c0002c2b3002d
:1017f00082cf50001d00320032c2b30082cf5000b1
:101800001e003200a2c2b30082cf50002900320075
:10181000bc020700208798009e8890001100fb0002
:101820000003b100e90f500031003e008100e800e4
:10183000118f9800f8ff37000804e800cfff370049
:1018400002082000ee0079000100a00001377900b5
:101850000000e800108f9800ddff3700020820002c
:10186000ee0079000120a000f8ff370002082000f8
:10187000ee0079000130a000f4ff370002082000dc
:10188000ee0079000140a000f0ff3700d2c2b300a3
:1018900082cf5000eaff320002c3b30082cf500073
:1018a000d8ff3a0002082000ee0079000110a000e5
:1018b000e6ff37000000e800108f9800190078005c
:1018c000808ce90070b897000308200042082000cf
:1018d000003779000000e00005003d00ee8079004f
:1018e000e180680001b779000000ea000037790064
:1018f000010820006e8078000008a300020032007a
:101900000010a10000b778009e889000e0c2b300ec
:10191000914f10000f003a002c0820000000eb004f
:1019200000377e000100e800108f98009141900080
:10193000a2c2b30082cf510026003a008180e800a5
:10194000118f980019007800808ce90070b897001a
:1019500000377e00200920000e0040005eff0700d7
:10196000004678001e8890001000fb0085020700ea
:1019700091062000810f500087003200810f500037
:1019800036003c0031062000810f5000e400320098
:10199000810f500019003c0051022000810f5000bf
:1019a000f100320011062000810f50005c0032006f
:1019b0001d8f98000000eb0000879800208798009a
:1019c0000080eb00108798000002eb008001eb0024
:1019d000ed0037004b02070000377e009e88900024
:1019e0001100fb000003b100e90f5000d9ff3e00d9
:1019f0008100e800118f9800f8ff370041062000b1
:101a0000810f50006400320071062000810f5000e9
:101a1000e7ff3c008c80fb0009017800a008200053
:101a20000e004000650207000000e000b800320030
:101a30001e8890008000e800118f98009041780087
:101a4000a20820000e014100010820008e80400005
:101a50000a0078001eff070042003700010720003f
:101a6000810f500083003200810f500018003c00ad
:101a7000e1062000810f50009f003200f106200097
:101a8000810f5000caff3a008c80fb00890178006a
:101a90000001eb00a00820000e00400065010700d7
:101aa0000000e0009a0032001e8890000000e8006c
:101ab000108f9800a20820000e01410001082000ac
:101ac0008e8040000a00780089fd0700250037005d
:101ad00051072000810f5000410032008107200093
:101ae000810f50005000320031072000810f50005c
:101af000afff3a0000c8b300804f560084003a00a0
:101b00009e8890008100e800118f980019007800ed
:101b1000808ce90070b997008001eb008d003700e0
:101b20008c80fb0009017800a00820000e00400016
:101b3000220207000000e000750032001e889000bd
:101b40008000e800118f980090417800a2082000e2
:101b50000e014100010820008e8040000a0078003c
:101b6000dbfe07000004440008844500888f550010
:101b700088003400b0042000209588008085eb00a8
:101b80000b0078004f06be004f05be004f04be009c
:101b90000080fa00000006008c80fb0089017800bc
:101ba00012002000a00820000e00400021010700c4
:101bb0000000e000560032001e8890000000e8009f
:101bc000108f9800a20820000e014100010820009b
:101bd0008e8040000a007800edfc0700e1ff37002e
:101be0008c80fb00890178000001eb00a008200038
:101bf0000e0040000f0107000000e000440032002a
:101c00009e8890008100e800118f9800a2082000b3
:101c10000e014100010820008e8040000a0078007b
:101c200097fd0700cfff37008c80fb00890178000b
:101c30000001eb00a00820000e004000fd0007009e
:101c40000000e000320032001e8890008000e800b2
:101c5000118f980090417800a20820000e014100e9
:101c6000010820008e8040000a007800affd0700c8
:101c7000bcff3700890178000001eb00010f200054
:101c8000a00820000e004000ea0007000000e0006d
:101c90001f0032001e8890000000e800108f98009e
:101ca0005e809000ee8090007e8190008e89900092
:101cb000e00f5000e08f5800e00f5900e08f59000e
:101cc0000b003a008e8690002e869000e0262100c0
:101cd00087fc07000d0278008c0178000001780075
:101ce000e12621000a0078003efe07009dff370034
:101cf00083c7b300d8ff3700088145008c80fb0004
:101d000089017800a00820000e0040003c01070077
:101d10009e8890008100e800118f980092ff3700a4
:101d200000c8b300804f5600f9ff3a001e889000ab
:101d30000000e800108f980019007800808ce900fe
:101d400060f89700204f990013002000a20820009f
:101d50000e014100010820008e8040000a0078003a
:101d60001efd07007fff370000c8b300804f5600fc
:101d7000e7ff3a001e8890000000e800108f9800ee
:101d80000e829000ae8190001200200041272100b9
:101d9000d4ff3700880578006cfe37000200e000b1
:101da00004003200800178000201e900028009008d
:101db0008159780000000600ee874700889fbe002a
:101dc0008a9fbe008c9fbe008e1f7800d4b79f00f4
:101dd000e5b79f00f6b79f0087bf9f00b1b79f0090
:101de0000206be003007900093007800c1b79f0044
:101df00090059000680040001000e90000047800a1
:101e00000b00e00001003d001b0020000000470027
:101e10000048eb000b057800190020000800e000e6
:101e20001d003c000900e000470032000800780077
:101e30004f0778004f06be004f05be004f04be009e
:101e4000ef00b100000006006162b900612bb9002b
:101e50005fb09700efb097007fb197008fb9970000
:101e600092fb0700270037006162b900612bb900bf
:101e70005fb09700efb097007fb197008fb99700e0
:101e800083fb0700d0b79f00e1b79f00f2b79f0028
:101e900083bf9f00e1ff37005fb09700efb097006e
:101ea0007fb197008fb99700e00f5000e08f580086
:101eb000e00f5900e08f59000a003a000a00e000e4
:101ec00008003c00bfb097000b8050000a004000a3
:101ed0000000e000d3ff34004fb197000218a300c8
:101ee000d0ff32000804e900ea0f5600d6ff3a009e
:101ef0005fb09700efb097007fb197008fb9970060
:101f000095020700800478000800470002c3b30070
:101f100002c844000a05e900ea0f5600d2ff3a0061
:101f20005fb09700efb097007fb197008fb997002f
:101f300032020700d0b79f00e1b79f00f2b79f00c1
:101f400083bf9f00b5ff37001d40a100b7ff3700da
:101f50001000fa0001027800820078000081eb0096
:101f600082bf9f002210200092bf9f000000e0006f
:101f700001003a000f80e900a0bf9f00b4bf9f009e
:101f80008002eb000400e000010032008402e9005e
:101f9000c5bf9f000400e00005003d00b004200024
:101fa000209588000080eb000080fa000000060009
:101fb0000048eb00e0bf9f00d0bf9f000301780006
:101fc0007080570001000700f7ff37000200fa0099
:101fd000881f780000047800e2bf9f0064815700ea
:101fe000d2fd0700980090000148a30001003200d4
:101ff0000080eb004f0478000080fa00000006002b
:102000000000fa0068815700cfb897005dfd070017
:102010000080fa0000000600ddfb070034fc07002a
:1020200097fc0700c1fc07006cfc07007400070068
:102030000000370084082000848f500039003200ef
:10204000848f500018003c0014082000848f50003a
:1020500044003200848f500004003c00040820003b
:10206000848f50006000320000000500240820002a
:10207000848f50004700320044082000848f5000b5
:10208000f9ff3a00130278008480e9000200e000c2
:1020900074ba9700810978004f003a008002eb0083
:1020a0006033b80028003700040a2000848f5000f5
:1020b00046003200848f500010003c0004092000cc
:1020c000848f5000e8ff3a0093007800e8805000c9
:1020d000110278009102900021039000b10390005a
:1020e000810978000498be000690be001000200010
:1020f0000200e0003b00320000000600020c20005d
:10210000828f500003003200020f2000828f5000a7
:10211000d5ff3a00930078008189e90071ba9700f1
:10212000deff3700130278008480e9000200e0003f
:1021300074ba970081097800060032000402fb009f
:10214000cfa2de00612bb9000498be000690be004d
:10215000100005000482fb008002eb006033b80031
:10216000f9ff370093007800e480500011027800f6
:1021700091029000810978000200e0000300320023
:102180004fabde0086037800efff37006033b80006
:10219000edff370093007800e880500011027800ce
:1021a0009102900021039000b10390008109780012
:1021b0000498be000690be00100020000200e0005f
:1021c00001003200000006000000060093007800c5
:1021d0008189e90071ba9700cfa2de00612bb900b6
:1021e000d9ff370000000600930078000182e90063
:1021f0008409780071ba97000200e000a6ff37005a
:1022000044082000848f50000b003200848f50005f
:102210000f003c0014082000848f50001a00320088
:1022200024082000848f50001e0032000408200083
:10223000848f50000e003a00930078008189e900f5
:10224000f1b8970001087800820878001400370080
:1022500004092000848f500021003200848f500038
:1022600004003c0084082000848f500016003200d7
:1022700000000500040a2000848f5000eeff3200a9
:10228000040c2000eaff3700930078008189e90000
:10229000f1b89700010878006111b9008288be008a
:1022a00010000500930078008189e900f1b89700db
:1022b000010878006112b900612bb9008498be0052
:1022c0008690be00f6ff3700930078008189e90010
:1022d000f1b897000108780082487800f0ff3700d5
:1022e000930078008189e90071ba970004087800aa
:1022f0006110b9006109b900009abe000292be00e7
:10230000e7ff370080007800104178000000e80007
:1023100003c2b300834f5100faff32008201fb0079
:10232000e9815100e48f5100f6ff3600b0c2b300de
:102330008001eb00804f510004003200d0c2b30096
:10234000804f510002003a00130020008100e80095
:102350008100e9000000eb0002003700ea00b9004c
:10236000020050005101fb000203b100e90f5100cf
:10237000faff36000300e00001003a000000ea0026
:1023800000000600f1fb2f0080804000f98f500014
:1023900001003e000050a00000000600f9ff3700d9
:1023a000f1f92f0080804000f98f500001003e00bd
:1023b000f005b20000000600f9ff3700881f780022
:1023c000000478000000eb0003082000838f500019
:1023d0001000350010082000808f50000f003400de
:1023e0000000eb0033082000838f500009003a0002
:1023f000120078006809500040ba9700d0ba9700e0
:1024000060bb9700f0bb9700049cbe000694be0022
:10241000100020004f047800000006001200780031
:1024200064095000f0b8970060b89700bf0007003b
:10243000009cbe000294be00f5ff37008408200017
:10244000848f500039003200848f500018003c0007
:1024500014082000848f500044003200848f500004
:1024600004003c0004082000848f50006700320004
:102470000000050024082000848f5000470032002f
:1024800044082000848f5000f9ff3a0013027800be
:102490008480e9000200e00074ba970081097800a6
:1024a00056003a008002eb006033b8002800370085
:1024b000040a2000848f50004d003200848f5000a9
:1024c00010003c0004092000848f5000e8ff3a000f
:1024d00093007800e880500011027800910290008b
:1024e00021039000b1039000810978000498be0098
:1024f0000690be00100020000200e0004200320002
:1025000000000600020c2000828f500031003200d3
:10251000020f2000828f5000d5ff3a009300780010
:102520008189e90071ba9700deff37001302780055
:102530008480e9000200e00074ba97008109780005
:10254000060032000402fb00cfa2de00612bb900be
:102550000498be000690be00100005000482fb0037
:102560008002eb006033b800f9ff37009300780079
:10257000e4805000110278009102900081097800f7
:102580000200e000030032004fabde00860378005b
:10259000efff37006033b800edff3700930078009d
:1025a000e880500011027800910290002103900011
:1025b000b1039000810978000498be000690be0027
:1025c000100020000200e0000100320000000600c0
:1025d00000000600c1ff2f0093894000930078009f
:1025e00011027800910290006033b800d8ff3700e4
:1025f000930078008189e90071ba9700cfa2de00cc
:10260000612bb900d2ff370000000600930078006c
:102610000182e9008409780071ba97000200e000a5
:102620009fff370044082000848f500030003200a4
:10263000848f50000a003c0014082000848f500052
:102640001b00320024082000848f50001f0032003d
:1026500004082000848f500025003200000005008f
:1026600004092000848f500027003200848f50001e
:1026700009003c0084082000848f5000f7ff3a00d6
:10268000930078008189e900f1b89700010878008b
:102690008248780015003700040a2000848f50001b
:1026a00013003200040c2000848f5000ebff3a002e
:1026b000930078008189e900f1b89700010878005b
:1026c0006111b9008288be000800370093007800cd
:1026d0008189e900f1b89700010878006112b9001a
:1026e000612bb9008498be008690be0010000500e2
:1026f000930078008189e900f1b89700010878001b
:1027000082087800f9ff3700930078008189e9009a
:1027100071ba9700040878006110b9006109b90026
:10272000009abe000292be00f0ff370081037800dd
:102730001d0007000001be006000b8000478a3007f
:1027400013003a006220e10015003e000d00390040
:102750008301d1000281d3008180d3008301d100a5
:102760000281d3008180d3008301d1000281d30094
:102770008180d3000538b000c42add00f300b20028
:102780008381720007f0a70003f0a000000006009c
:1027900083ff2700020020006110b900f9ff370015
:1027a00003ff2700f7ff3700c70ade00f107b2007a
:1027b000f50fb20008003200e1cf42000200320003
:1027c0000170a00024000500810f7000010032009c
:1027d0000408050044000500810f700002003a0063
:1027e000140005008502e9000000400081c0480097
:1027f000fcff3b000170a000240005001200fa005d
:10280000f4ff2f000400e100e08f5800e00f5900b2
:10281000e08f590007003e00a400200011000900cd
:102820000480d8008000eb006011b8000080fa003e
:10283000000006008e1f7800d4cc2c00c5cc2c00e4
:10284000c6cc2c00c7cc2c00250007004e00900001
:10285000de0090006e019000fe0190003400200028
:102860008301d1000281d3008180d3000080d30096
:102870000402e900faff3a008f87e900ebff370016
:102880000504b8001e1f4400050db8001e8f4c0043
:102890000c86d2001e1f45000514b8001e8f4d0087
:1028a0008d86d2000c86d3001e1f4c00051db8007b
:1028b0001e8f4c000c86d2008d86d3001e1f4d004b
:1028c0009e854d008d86d2000c86d300609f4d0002
:1028d000608f4e008006eb004fb7970000000600a7
:1028e000889fbe008a9fbe008c9fbe008e1f78000e
:1028f0006066b8006fb797000404b800081f78003e
:10290000040db8000a9f44000414b800089f4d004d
:10291000041db8000a9f4c00609f4d00608f4e0060
:102920006fb7970062074700d5ff070064074700ad
:1029300086027800d2ff070066074700870278000a
:10294000cfff07004f0778004f06be004f05be00bf
:102950004f04be00000006001200fa00889fbe006f
:102960008a9fbe000205be000004be00f0ff2f00db
:102970000040e100e08f5c00e00f5d00e08f5d0053
:1029800009003e00a2002000110009000284d800c6
:102990006108b8006011b8004f05be004f04be00ca
:1029a0000080fa00000006000800be000a01be0018
:1029b00092ff07008e1f7800a40020000500200071
:1029c0006033b800c6ff07003e005400be805c00c4
:1029d0003e015d009e815d006e00b1008f87e900c1
:0429e000edff3700d0
:020000040000fa
:1029e40054520000522d00005520000000540000f5
:1029f400525200002d4400002000000054520000f8
:102a0400522d00004c2000000054000052520000df
:102a14002d5200002000000052690000677400007d
:102a24005520000000520000696700007444000053
:102a3400200000002d2d00002d2d00002d20000071
:102a4400004c000065660000744400002000000093
:102a54004c6500006674000055200000005400001e
:102a6400524c00002d55000020000000545200007c
:102a74004c2d00004420000000540000524c000083
:102a84002d4c000020000000545200004c2d00008a
:102a940052200000002500003464000025340000aa
:102aa4006425000034640000253400006400000044
:102ab400312e000020630000616c00006962000098
:102ac40072610000746900006f6e00002020000035
:102ad400003200002e200000736500007420000006
:102ae4006e6f0000726d00002f72000065760000aa
:102af40020000000332e00002074000065730000e5
:102b0400742000006b650000797300002020000031
:102b140020200000004d0000494400005f4c0000ec
:102b2400583d000025340000643c000031360000ac
:102b340030300000004d0000494400005f4c0000ac
:102b4400583d000025340000643e0000323400008b
:102b540030300000004d0000494400005f4c00008c
:102b6400593d000025340000643c0000313600006b
:102b740030300000004d0000494400005f4c00006c
:102b8400593d000025340000643e0000323400004a
:102b940030300000004d0000494400005f52000046
:102ba400583d000025340000643c0000313600002c
:102bb40030300000004d0000494400005f52000026
:102bc400583d000025340000643e0000323400000b
:102bd40030300000004d0000494400005f52000006
:102be400593d000025340000643c000031360000eb
:102bf40030300000004d0000494400005f520000e6
:102c0400593d000025340000643e000032340000c9
:102c14003030000000740000757200006e20000067
:102c24004c200000757000002026000020000000e9
:102c340025340000640000004d410000585f00008e
:102c44004c5900003d250000346400003c25000080
:102c54003464000000740000757200006e200000ef
:102c64004c200000646f0000776e00002600000016
:102c74004d490000585f00004c5900003d250000fc
:102c8400346400003e250000346400000074000039
:102c9400757200006e2000004c2000006c6500007e
:102ca40066740000260000004d410000585f0000db
:102cb4004c5800003d250000346400003c25000011
:102cc4003464000000740000757200006e2000007f
:102cd4004c20000072690000676800007400000066
:102ce4004d4900004e5f00004c5800003d25000097
:102cf400346400003e2500003464000000740000c9
:102d0400757200006e2000005220000075700000f3
:102d140020260000200000004d410000585f000004
:102d2400525900003d250000346400003c25000099
:102d34003464000000740000757200006e2000000e
:102d440052200000646f0000776e0000260000002f
:102d54004d4900004e5f0000525900003d2500001f
:102d6400346400003e250000346400000074000058
:102d7400757200006e200000522000006c65000097
:102d840066740000260000004d4900004e5f0000fc
:102d9400525800003d250000346400003e25000028
:102da4003464000000740000757200006e2000009e
:102db4005220000072690000676800007426000059
:102dc400004d0000415800005f520000583d0000d3
:102dd40025340000643c0000253400006400000039
:102de4002a2a00002053000041560000452000001c
:102df40045520000524f0000522000002a2a0000d1
:102e0400004100005050000020490000443d0000f3
:102e14002025000030320000582500003032000028
:102e240058250000303200005825000030320000e0
:102e340058000000253200006400000054570000d0
:102e4400452000004c490000544500002052000079
:102e540045440000002000006e3d00002564000091
:102e6400005400005249000047470000455200004a
:102e74002042000055540000544f00004e20000032
:102e8400520000005452000049470000474500002a
:102e94005220000042550000545400004f4e0000e0
:102ea400204c000000250000327500002e25000093
:102eb40030320000755600002025000033750000f4
:102ec4005220000000420000555a0000200000007b
:102ed400426f0000666600000025000032750000a5
:102ee4002e25000030320000755600002025000019
:102ef40033750000522000002532000075420000a6
:102f04004200000025320000752e0000253000002c
:102f140032750000562000002535000073200000a3
:102f2400253300007500000025320000752e0000d6
:102f340025300000327500002025000033750000a4
:102f44002e250000303100007556000020250000b9
:102f54003375000000250000327500002e250000a6
:102f64003032000075560000202500003375000043
:102f740052250000346400004300000025320000a4
:102f8400752e000025300000327500005620000028
:102f940025330000755200002534000075420000fe
:102fa40000250000327500002e250000303200009c
:102fb40075560000202500003375000052200000e3
:102fc4002533000075430000002000002a4c000057
:102fd4004f5700002a2000002533000075520000de
:102fe4002025000033750000420000002532000057
:102ff400752e0000253000003275000056200000b8
:1030040025330000755200002025000033750000b0
:1030140042000000c2b30000bcdd000020bc000080
:10302400afca0000dfb200002020000020b500007d
:10303400bbda0000c0200000cfcf0000c3de0000d8
:08304400bd2000002020000067
:020000040000fa
:10304c000200fa00000f78001e007800e10f50001b
:10305c000c0032001e0078000000e0000700320077
:10306c001e007800e20f5000080032001e007800ad
:10307c00e30f5000070032000800370001eba800f6
:10308c000600370011eba8000400370021eba80064
:10309c000200370031eba800000000000000000027
:1030ac000080fa00000006000400fa00000f78000f
:1030bc00110798001e007800e10f50000e0032003e
:1030cc001e0078000000e000070032001e007800af
:1030dc00e20f50000c0032001e007800e30f50008d
:1030ec000d003200100037009e009000215888001f
:1030fc00062bef000c0037009e009000a1588800b2
:10310c00162bef00080037009e0090002159880014
:10311c00262bef00040037009e009000a159880078
:10312c00362bef0000000000000000000080fa00c9
:10313c00000006000400fa00000f78001107980048
:10314c001e007800e10f50000d0032001e007800c8
:10315c000000e000070032001e007800e20f500073
:10316c000a0032001e007800e30f50000a00320003
:10317c000c0037009e009000615888000900370051
:10318c009e009000e1588800060037009e009000d9
:10319c0061598800030037009e009000e1598800b7
:1031ac0000000000000000000080fa000000060093
:1031bc000000fa0001eca800000000000080fa00fa
:1031cc00000006000400fa00000f780011079800b8
:1031dc001e007800e20f5000090032001e0078003b
:1031ec00e30f5000090032001e007800e10f500080
:1031fc0009003a009e0090003161880007003700fa
:10320c009e00900031628800040037009e00900000
:10321c00316388000100370000000000000000004e
:10322c000080fa00000006000000fa00ffff3700e3
:10323c000000fa00ffff37000000fa00196ea90029
:10324c00194ea900ffff37003a00fa0001002400d4
:10325c000010200001017800800078000200780046
:10326c00601b0700008fbe0050052000a10a200043
:10327c00ba1a07001e0078009e009000e61a07009c
:10328c00404798004e409000614068000004e00008
:10329c0003003200e4ff070010c0b30058013700f0
:1032ac000000eb00401f980010808000301f980039
:1032bc003e199000ce1990004c18dd00c410de00b1
:1032cc00810070004c10dd00301f9800411f9800e9
:1032dc00be18900022808000f0ff200000006100ea
:1032ec0000804000301f98003e199000ce199000cd
:1032fc0060002000000047000288be000000eb00c8
:10330c00401f980030808000301f98003e199000bc
:10331c00ce1990004c18dd00c410de008100700046
:10332c004c10dd00301f9800411f9800be18900013
:10333c0042808000f0ff200000006100008040000f
:10334c00301f98003e199000ce19900060002000ac
:10335c000000470022009800330098000000eb00aa
:10336c00401f980050808000301f98003e1990003c
:10337c00ce1990004c18dd00c410de0081007000e6
:10338c004c10dd00301f9800411f9800be189000b3
:10339c0062808000f0ff200000006100008040008f
:1033ac00301f98003e199000ce199000600020004c
:1033bc000000470042009800530098000000eb000a
:1033cc00401f980070808000301f98003e199000bc
:1033dc00ce1990004c18dd00c410de008100700086
:1033ec004c10dd00301f9800411f9800be18900053
:1033fc0082808000f0ff200000006100008040000f
:10340c00301f98003e199000ce19900060002000eb
:10341c000000470062009800730098000000eb0069
:10342c00401f980090808000301f98003e1990003b
:10343c00ce1990004c18dd00c410de008100700025
:10344c004c10dd00301f9800411f9800be189000f2
:10345c00a2808000f0ff200000006100008040008e
:10346c00301f98003e199000ce199000600020008b
:10347c000000470002089800130898000000eb00b9
:10348c00401f9800b0808000301f98003e199000bb
:10349c00ce1990004c18dd00c410de0081007000c5
:1034ac004c10dd00301f9800411f9800be18900092
:1034bc00c2808000f0ff200000006100008040000e
:1034cc00301f98003e199000ce199000600020002b
:1034dc000000470022089800330898006000200084
:1034ec000000470020019000b00190006000200017
:1034fc000000470090009000100078000202be000f
:10350c000001be001e0078009e009000501a0700bb
:10351c0040479800600020000000470060019000c8
:10352c00f00190006000200000004700d0009000e7
:10353c004000900044002000050020003e034200a3
:10354c00ae834a000202be000001be000600be00af
:10355c003f1a070000417800640047009080fb0090
:10356c000280fb000080600000f0a7000000ea0071
:10357c000000ea004f00de00404798006000200089
:10358c000000470020099000b00990006000200066
:10359c000000470090089000000890008400200074
:1035ac00050020003e034200ae834a000202be002a
:1035bc000001be000600be00251a0700004178007d
:1035cc00640047009080fb000280fb0000806000dc
:1035dc0000f0a7000000ea000000ea004f00de0047
:1035ec00404798004e409000614068000004e000a5
:1035fc00030032000cff070010c0b300800037003e
:10360c00db1907001e0078009e009000f5190700da
:10361c000001be00e0012000000047000288be004f
:10362c0022002000030020003e004100ae80490033
:10363c00ec1907000001be00e0012000000047006b
:10364c002200980033009800440020000500200060
:10365c003e004200ae804a00e21907000001be00a5
:10366c00e001200000004700420098005300980041
:10367c0062002000030020003e004100ae804900a3
:10368c00d81907000001be00e0012000000047002f
:10369c006200980073009800840020000500200050
:1036ac003e004200ae804a00ce1907000001be0069
:1036bc00e001200000004700020898001308980061
:1036cc00a2002000030020003e004100ae80490013
:1036dc00c41907000001be00e001200000004700f3
:1036ec002208980033089800600020000000470072
:1036fc001001780090019000e001200000004700cc
:10370c009000900010007800800f5100818f5900bc
:10371c0037003a00600020000000470020019000b4
:10372c00b0019000e001200000004700b0009000c4
:10373c0020009000800f5100818f59002c003a001e
:10374c00600020000000470040019000d001900074
:10375c00e001200000004700d000900040009000e5
:10376c00800f5100818f590021003a006000200029
:10377c000000470060019000f0019000e001200083
:10378c0000004700f000900060009000800f510096
:10379c00818f590016003a0060002000000047009d
:1037ac000009900090099000e00120000000470003
:1037bc009008900000089000800f5100818f5900f4
:1037cc000b003a0060002000000047002009900028
:1037dc00b0099000e001200000004700b008900004
:1037ec0020089000800f5100818f59000300320097
:1037fc008ffe070010c0b300010037000040eb0043
:10380c000080fa00000006000800fa000100240005
:10381c000010200001017800800078000200780080
:10382c00f0190700008fbe001e0078009e0090006b
:10383c006c1907002007980031079800ae00900023
:10384c00f0ff200000806000208088002e00900097
:10385c00be0090004409dd004c00de000000710049
:10386c00cc08de0020079800310798002e0090004d
:10387c001080880011808000f07c2000808f500028
:10388c0002003e0010c0b300880037002200200068
:10389c00030020003e004100ae8049005119070092
:1038ac002007980031079800ae009000f0ff200030
:1038bc0000806000408088002e009000be009000c8
:1038cc00c409dd004c00de0000807100cc08de0075
:1038dc0020079800310798002e0090003080880057
:1038ec0041808000f07c2000808f500002003e0060
:1038fc0010c0b3006d003700420020000300200010
:10390c003e004100ae8049003619070020079800a0
:10391c0031079800ae009000f0ff2000008060009e
:10392c00608088002e009000be009000c409dd006d
:10393c004c00de0000807100cc08de0020079800ef
:10394c00310798002e009000508088006180800024
:10395c00703e2000808f500002003e0010c0b3006b
:10396c005200370062002000030020003e0041009e
:10397c00ae8049001b1907002007980031079800fa
:10398c00ae009000f0ff2000008060008080880076
:10399c002e009000be009000c409dd004c00de003b
:1039ac0000807100cc08de002007980031079800d9
:1039bc002e0090007080880071808000f07c2000c8
:1039cc00808f500002003e0010c0b300370037005b
:1039dc0082002000030020003e004100ae80490020
:1039ec00001907002007980031079800ae009000de
:1039fc00f0ff200000806000a08088002e00900066
:103a0c00be009000c409dd004c00de000080710097
:103a1c00cc08de0020079800310798002e0090009b
:103a2c0090808800a1808000f07c2000808f500066
:103a3c0002003e0010c0b3001c003700a2002000a2
:103a4c00030020003e004100ae804900e51807004d
:103a5c002007980031079800ae009000f0ff20007e
:103a6c0000806000c08088002e009000be00900096
:103a7c00c409dd004c00de0000807100cc08de00c3
:103a8c0020079800310798002e009000b080880025
:103a9c00c1808000703e2000808f500002003e00ec
:103aac0010c0b300010037000040eb000080fa00aa
:103abc00000006001200fa00300798004107980039
:103acc00520798006307980074079800050f980038
:103adc00ee0090004e009000808f500034003600b5
:103aec00de0090007000470010805000ee00900047
:103afc00808f500002003900008020005b003700ee
:103b0c00e80047006e0047001101780010004100ea
:103b1c00ee009000808f500002003e00004020001c
:103b2c0052003700e80047006e0047009101780012
:103b3c0010804100ee009000008050008000eb00ef
:103b4c00008fbe001e0178009e0190004a18dd0017
:103b5c00c610de00810070004a10dd00008fbe0030
:103b6c00de0090007000470010815000e800470014
:103b7c006e00470091017800108041000000510058
:103b8c008000eb000001be001e0078009e0090003b
:103b9c00a0f30700008fbe009e007800210798005c
:103bac00e400470000402000110040002f003700c7
:103bbc00e60047007000470011017800100041003a
:103bcc00ee009000808f500002003e000000eb00e1
:103bdc0026003700ce0090006e0047001080500089
:103bec00ee009000808f5000020039000040200051
:103bfc001e003700e6004700700047009101780076
:103c0c0010804100ee009000008050008000eb001e
:103c1c00008fbe001e0178009e0190004a18dd0046
:103c2c00c610de00810070004a10dd00008fbe005f
:103c3c00ce0090006e00470010815000e600470057
:103c4c007000470091017800108041000000510085
:103c5c008000eb000001be001e0078009e0090006a
:103c6c006cf30700008fbe001e0078000080fa0085
:103c7c00000006001a00fa002057980041579800df
:103c8c0062579800035f9800c1818000f00f2000fc
:103c9c0000806000000f78000040eb007047980037
:103cac00ee5090002e50900080cf50000d0036004a
:103cbc00ee5090007200470010c050006047980012
:103ccc00be0090001e0078008088b9003007980074
:103cdc00fe4090007200470010c0400070479800f2
:103cec0010003700ae5090007600470010c0500016
:103cfc0060479800be0090001e0078008088b900d4
:103d0c0030079800ae509000114f98000040eb0027
:103d1c00004f9800ce0090003e00900000805000b4
:103d2c00300798000040eb00304f98008e58900000
:103d3c004e50900080cf50000d0036008e589000f1
:103d4c007400470010c05000204f9800de00900017
:103d5c001e0078008088b90050079800be4890007b
:103d6c007400470010c04000304f9800100037001e
:103d7c00ce5090007800470010c05000204f9800a3
:103d8c00de0090001e0078008088b9005007980073
:103d9c00ce509000514f98000040eb00404f9800df
:103dac00ee0090005e0090000080500050079800dc
:103dbc00d1818000f00f2000008060001007980077
:103dcc00de0090003e009000808f50001600310005
:103ddc00be0090005e0090000080500070079800bc
:103dec007e4890000080fb009e0090008088b90007
:103dfc00200798006e4890000080fb009e00900009
:103e0c008180b90070079800de00900064004700c4
:103e1c00908040007e4890000080fb0000804000b5
:103e2c00000f980015003700de0090003e00900057
:103e3c0000805000700798007e4890000080fb00c6
:103e4c009e0090008088b900200798006e48900072
:103e5c000080fb009e0090008180b90070079800e4
:103e6c00de00900064004700908050007e48900077
:103e7c000080fb0000805000000f98008e0890001e
:103e8c0000082000008060000000e0000300320009
:103e9c001e5090000040e800105798001e509000f3
:103eac000080fa00000006000600fa000381800082
:103ebc00128080003180800020808000250320004b
:103ecc0024032000fbfe0700100798001e00900042
:103edc004300de00100798009e009000f00f2000b9
:103eec00808f50000200360035f0ef0003003700e1
:103efc001e0090000040780035f0b700f380800081
:103f0c00428080006180800050808000250320006a
:103f1c0024032000e7fe0700100798001e00900005
:103f2c004300de00100798009e009000f00f200068
:103f3c00808f50000200360036f0ef00030037008f
:103f4c001e0090000040780036f0b7002ad0bf0069
:103f5c000004e0002a003a00d3808000a280800098
:103f6c00c1808000b0808000250320002403200045
:103f7c00d0fe0700100798001e0090004300de00e2
:103f8c00100798009e009000f00f2000808f5000ca
:103f9c000200360033f0ef00030037001e009000e3
:103fac000040780033f0b700e3808000728080001e
:103fbc009180800080808000250320002403200055
:103fcc00bcfe0700100798001e0090004300de00a6
:103fdc00100798009e009000f00f2000808f50007a
:103fec000200360034f0ef00030037001e00900092
:103ffc000040780034f0b7003c70ef00ee00370062
:10400c002ad0bf00e14f5000c2003a00d38080009c
:10401c00a2808000c1808000b08080002503200039
:10402c0024032000a3fe0700c0818800e3808000e9
:10403c0072808000918080008080800025032000a9
:10404c00240320009bfe0700d0818800c0818000e3
:10405c004800de000040780000007800e900b9005c
:10406c0000407800d1818000c808de0081407800d3
:10407c000140500068404000004f78001e4178001d
:10408c00010421008248780040d0bf003ef0b70008
:10409c00d1818000f07f2000808f500003003e0013
:1040ac001e4078000040e900004f78009e407800e8
:1040bc00f3032100814978003fd0bf003df0b700e9
:1040cc00c1818000f07f2000808f500006003e00f0
:1040dc003dd0bf00694040003ff0b7003ed0bf006c
:1040ec006940400040f0b70040d0bf000080fb00aa
:1040fc003110210000804000904178003fd0bf007b
:10410c000080fb003110210000804000104178003d
:10411c003ed0bf000080fb00311021000080400029
:10412c00104278003dd0bf000080fb003110210010
:10413c00008040001040780084407800cdfe0700dd
:10414c0033f0b70040d0bf000080fb00210b2100f2
:10415c0000804000904178003fd0bf000080fb0001
:10416c00210b210000804000104178003ed0bf00a0
:10417c000080fb00210b21000080400010427800e1
:10418c003dd0bf000080fb00210b210000804000cf
:10419c001040780084407800b6fe070034f0b70079
:1041ac000040eb0010479800c181800000402000c7
:1041bc00808f500026003a0010c0b30010479800c2
:1041cc00d181800000402000808f50000f0036000d
:1041dc00d181800000c02f0000804000d081880079
:1041ec00d1818000f0a22b000008b8004308de004b
:1041fc00200798002e0090008040780000c8b30083
:10420c0000c0400033f0b7000e003700d1818000b1
:10421c000040200001005000d0818800d181800036
:10422c00f0a22b000008b8004308de00200798001d
:10423c002e0090008040780000c8b3000140500070
:10424c0033f0b70033d0bf000040ea0034f0b700c1
:10425c00c181800000402000808f500002003e0091
:10426c0010c0b3001047980000d0bf000080fb00c6
:10427c008000400040152100008040009000780034
:10428c00c08180000008b000808f50000200360012
:10429c0010c0b3001047980000d0bf008040e80069
:1042ac008141780002002100034978000080fb0066
:1042bc00c181800000014000401521000000410038
:1042cc000108780000d0bf00f04f500001003a0008
:1042dc000070ef001e409000e14f500002003a00c9
:1042ec0080c0b30030f0b70030d0bf000004e00055
:1042fc000600320030d0bf000040e90030f0b700bb
:10430c0010c0b3003cf0b7002b0037003c70ef003e
:10431c0029003700d3808000a2808000c1808000fb
:10432c00b08080002503200024032000e1fd07005d
:10433c00100798001e0090004300de001007980044
:10434c009e009000f00f2000808f5000020036007d
:10435c0033f0ef00030037001e009000004078009f
:10436c0033f0b700e3808000728080009180800081
:10437c00808080002503200024032000cdfd070051
:10438c00100798001e0090004300de0010079800f4
:10439c009e009000f00f2000808f5000020036002d
:1043ac0034f0ef00030037001e009000004078004e
:1043bc0034f0b7003c70ef005103210091407800bd
:1043cc0000c8b30080cf50000f003a0061032100f9
:1043dc009140780000c8b30080cf50000a003a002a
:1043ec00310321009140780000c8b30080cf500009
:1043fc0005003a00410321009140780000c8b30049
:10440c0080cf5000010032000621ef0000000000b8
:10441c000080fa00000006000200fa00000f78008d
:10442c00107080004200de00614060000004e0007b
:10443c000b003200608280000000e800608288007f
:10444c00608280000000e00003003a00608280007f
:10445c000000e800608288004a30ef000a00370054
:10446c00508280000000e80050828800508280005a
:10447c000000e00003003a00508280000000e800d9
:10448c00508288004c30ef001e0078000000e000e5
:10449c00120032001e0078008000eb006011b800a2
:1044ac00f4462d00854220006033b80046f2070028
:1044bc00843e2000050020006033b800f1f10700b5
:1044cc00000178000100780082017800000178007a
:1044dc0003007800820078003ff107000000000024
:1044ec000080fa00000006000200fa000040eb0019
:1044fc00004f7800080037001e80fb004117210098
:10450c00008040008040eb00014878001e4078009d
:10451c000040e800004f78001e407800ff4f50002c
:10452c00f5ff3600000000000080fa0000000600d5
:10453c000200fa0061022100110f7800f0c5200082
:10454c009e007800808f500018003600401b210020
:10455c008040eb0031489800401b2100b04890008f
:10456c00401b210021489800401b2100a0489000ce
:10457c00401b210011489800401b210090489000de
:10458c00401b210001489800401b210080489000ee
:10459c00401b210071409800401b2100f04090000e
:1045ac00401b2100614098009d0037004080200096
:1045bc009e007800808f500017003600401b2100b1
:1045cc0011c0b30061409800401b21008040eb00fb
:1045dc0031489800401b2100b0489000401b21003e
:1045ec0021489800401b2100a0489000401b21004e
:1045fc0011489800401b210090489000401b21005e
:10460c0001489800401b210080489000401b21006d
:10461c007140980082003700005d20009e007800f9
:10462c00808f500017003600401b210011c0b300d2
:10463c0071409800401b21008040eb0031489800ed
:10464c00401b2100b0489000401b210021489800dd
:10465c00401b2100a0489000401b210011489800ed
:10466c00401b210090489000401b210001489800fd
:10467c00401b210080489000401b210061409800a5
:10468c0067003700003a20009e007800808f5000b1
:10469c0017003600401b210011c0b30021489800c0
:1046ac00401b21008040eb0031489800401b21004a
:1046bc00b0489000401b210011489800401b21007d
:1046cc0090489000401b210001489800401b21009d
:1046dc0080489000401b210071409800401b210035
:1046ec00f0409000401b2100614098004c003700c6
:1046fc00e02220009e007800808f500017003600ca
:10470c00401b210011c0b30031489800401b210010
:10471c008040eb0021489800401b2100a0489000ed
:10472c00401b210011489800401b2100904890002c
:10473c00401b210001489800401b2100804890003c
:10474c00401b210071409800401b2100f04090005c
:10475c00401b21006140980031003700a00b200065
:10476c009e007800808f500017003600401b2100ff
:10477c0011c0b30011489800401b21008040eb0091
:10478c0031489800401b2100b0489000401b21008c
:10479c0021489800401b2100a0489000401b21009c
:1047ac0001489800401b210080489000401b2100cc
:1047bc0071409800401b2100f0409000401b2100ec
:1047cc006140980016003700401b210011c0b30057
:1047dc0001489800401b21008040eb0031489800b4
:1047ec00401b2100b0489000401b2100214898003c
:1047fc00401b2100a0489000401b2100114898004c
:10480c00401b210090489000401b210071409800f3
:10481c00401b2100f0409000401b2100614098009b
:10482c0081022100110f780030c620009e00780014
:10483c00808f500018003600401b21008040eb0098
:10484c0051409800401b2100d0409000401b21009b
:10485c0041409800401b2100c0409000401b2100ab
:10486c0031409800401b2100b0409000401b2100bb
:10487c0021409800401b2100a0409000401b2100cb
:10488c0011409800401b210090409000401b2100db
:10489c00014878009d003700508020009e00780071
:1048ac00808f500017003600401b210011c0b30050
:1048bc0051409800401b21008040eb004140980083
:1048cc00401b2100c0409000401b2100314098004b
:1048dc00401b2100b0409000401b2100214098005b
:1048ec00401b2100a0409000401b2100114098006b
:1048fc00401b210090409000401b21000148780093
:10490c0082003700b06820009e007800808f500035
:10491c0017003600401b210011c0b3004140980025
:10492c00401b21008040eb0051409800401b2100af
:10493c00d0409000401b210031409800401b2100ca
:10494c00b0409000401b210021409800401b2100ea
:10495c00a0409000401b210011409800401b2100fa
:10496c0090409000401b2100014878006700370000
:10497c00505120009e007800808f500017003600a8
:10498c00401b210011c0b30011409800401b2100b6
:10499c008040eb0051409800401b2100d04090001b
:1049ac00401b210041409800401b2100c04090005a
:1049bc00401b210031409800401b2100b04090006a
:1049cc00401b210021409800401b2100a04090007a
:1049dc00401b2100014878004c003700003a2000b1
:1049ec009e007800808f500017003600401b21007d
:1049fc0011c0b30001487800401b21008040eb003f
:104a0c0051409800401b2100d0409000401b2100d9
:104a1c0041409800401b2100c0409000401b2100e9
:104a2c0031409800401b2100b0409000401b2100f9
:104a3c0021409800401b2100a0409000401b210009
:104a4c001140980031003700e02220009e007800d1
:104a5c00808f500017003600401b210011c0b3009e
:104a6c0021409800401b21008040eb0051409800f1
:104a7c00401b2100d0409000401b21004140980079
:104a8c00401b2100c0409000401b21003140980089
:104a9c00401b2100b0409000401b210011409800a9
:104aac00401b210090409000401b210001487800e1
:104abc0016003700401b210011c0b3003140980094
:104acc00401b21008040eb0051409800401b21000e
:104adc00d0409000401b210041409800401b210019
:104aec00c0409000401b210021409800401b210039
:104afc00a0409000401b210011409800401b210059
:104b0c0090409000401b210001487800b07080005c
:104b1c004e00de006140600080407800401b2100a8
:104b2c004148980041022100110f780030d6200036
:104b3c009e007800808f50000c003600401b210036
:104b4c008040eb0071489800401b2100f048900019
:104b5c00401b210061489800401b2100e048900058
:104b6c00401b21005148980029003700e09c200090
:104b7c009e007800808f50000b003600401b2100f7
:104b8c0011c0b30071489800401b21008040eb001d
:104b9c0061489800401b2100e0489000401b210018
:104bac00514898001a003700907e20009e00780033
:104bbc00808f50000b003600401b210011c0b30049
:104bcc0051489800401b21008040eb007148980030
:104bdc00401b2100f0489000401b210061489800c8
:104bec000b003700401b210011c0b3007148980026
:104bfc00401b2100f0489000401b210061489800a8
:104c0c00401b2100e0489000401b210051489800b7
:104c1c00000000000080fa00000006000200fa000c
:104c2c0043fe07000040eb00004f78007200370095
:104c3c001e80fb00411b21000080400010407800ca
:104c4c00e14f500020003a001e80fb00d11d2100d6
:104c5c00008040008040eb00014878001e80fb0083
:104c6c00d11c21000080400010407800e24f500021
:104c7c0009003c001e80fb00d11c210080804000fc
:104c8c00914078008140e80001417800d11c21005e
:104c9c0000804000024878001e80fb00d11c2100df
:104cac000080400010407800e34f500025003a008f
:104cbc001e80fb00d11e21000080400011c0b300fb
:104ccc00014878001f0037001e80fb00d11c21001a
:104cdc00008040008040eb00014878001e80fb0003
:104cec00d11d21000080400010407800e24f5000a0
:104cfc0009003c001e80fb00d11d2100808040007b
:104d0c00914078008140e80001417800d11d2100dc
:104d1c0000804000024878001e80fb00d11d21005d
:104d2c000080400010407800e34f500005003a002e
:104d3c001e80fb00d11e2100008040008040eb0053
:104d4c00014878001e80fb00d11e2100008040002d
:104d5c0010407800e14f50000c003a001e80fb0020
:104d6c00d11f210000804000104078000004e000ba
:104d7c0006003a001e80fb00d1202100008040007c
:104d8c0011c0b30001487800050037001e80fb00fd
:104d9c00d1202100008040008040eb0001487800c9
:104dac001e80fb00d11e2100008040009040780046
:104dbc001e80fb00d21f2100000041001040780033
:104dcc0080cf5000010032000621ef009e80fb00d6
:104ddc001e80fb00d21e2100810041001141780091
:104dec00d11f210000804000024878001e4078004e
:104dfc000040e800004f78001e407800ef4f500054
:104e0c008bff3600000000000080fa000000060056
:104e1c000400fa000040eb00004f7800c4fd0700ce
:104e2c00401b2100104078000004e0000500320017
:104e3c0062002000214f2900a017210022f007005a
:104e4c0033003700401b2100104090000004e000ac
:104e5c000500320062002000914f2900a0172100ac
:104e6c0019f007002a003700401b21002040900059
:104e7c000004e0000500320062002000015029000f
:104e8c00a017210010f0070021003700401b210063
:104e9c00304090000004e000050032006200200069
:104eac0071502900a017210007f0070018003700e7
:104ebc00401b2100404090000004e000070032003d
:104ecc0062002000e1502900a0172100feef07002e
:104edc00a0c0b300004f78000d003700401b21002c
:104eec00504090000004e0000500320062002000f9
:104efc0051512900a0172100f3ef070004003700df
:104f0c0062002000c1512900a0172100eeef07001c
:104f1c00401b2100604090000004e00005003200be
:104f2c00620020003152290040172100e6ef0700f3
:104f3c0031003700401b2100704090000004e0005d
:104f4c000500320062002000a15229004017210008
:104f5c00ddef070028003700401b210000489000bf
:104f6c000004e0000500320062002000115329000b
:104f7c0040172100d4ef07001f003700401b210011
:104f8c00104890000004e000050032006200200090
:104f9c008153290040172100cbef07001600370082
:104fac00401b2100204890000004e0000500320066
:104fbc0062002000f153290040172100c2ef0700c6
:104fcc000d003700401b2100304890000004e00029
:104fdc0005003200620020006154290040172100b6
:104fec00b9ef07000400370062002000c15129000e
:104ffc0040172100b4ef0700401b210040489000ef
:10500c000004e000040032004017210011c4b3007a
:10501c00414898000300370040172100d1c2b3006b
:10502c00414898004017210001c2b3005148980034
:10503c00401b2100704890000004e0000400320086
:10504c0040172100c1c4b300614898000300370029
:10505c0040172100d1c2b30061489800401b2100c9
:10506c00504890000004e00004003200401721007a
:10507c0021c5b30071489800030037004017210088
:10508c00d1c2b30071489800401721008040eb005a
:10509c000150980000c8b3004916070040172100c2
:1050ac001b16070080fb07000000eb0010079800a0
:1050bc00310321009140780000c8b30080cf50002c
:1050cc000500360033d0bf000080fb000008b100a3
:1050dc00100798000500370033d0bf000080fb009c
:1050ec000108200000805000100798001e0090005e
:1050fc004400dd00800078001000200031f807002b
:10510c000000eb001007980041032100914078004b
:10511c0000c8b30080cf50000500360034d0bf006b
:10512c000080fb000008b100100798000500370054
:10513c0034d0bf000080fb0001082000008050002c
:10514c00100798001e0090004400dd0080007800dd
:10515c00200020001bf8070000ccb3001816070035
:10516c0034d0bf008081fb0033d0bf000081fb0036
:10517c0036d0bf008080fb0035d0bf000080fb0024
:10518c00831f7800821f7800811f7800801f7800b1
:10519c00d0542900801f78004017210095f3070098
:1051ac00ea87570040172100d91507001e407800e8
:1051bc000080fa00000006000000fa000000eb007e
:1051cc0095fc07005182800040062000808f500023
:1051dc0008003600196ea90060828000e90f5000ab
:1051ec0002003e00a00020008bfc0700194ea90015
:1051fc00ffff3700000000000080fa0000000600ee
:10520c000000fa0001d0bf000004e00002003a00e8
:10521c00198ea9000b00370001d0bf000040e90037
:10522c0001f0b70001d0bf000000fb00610060007e
:10523c000000e00002003200198ea80001003700c7
:10524c00198ea900000000000080fa000000060082
:10525c001c00fa00205f98000040eb00004f780023
:10526c000000eb00100798000170ef00d2ff070060
:10527c00e3ff07002e589000ea4f50001500340051
:10528c002e589000f54f500012003c001e0090006c
:10529c000000e0000f00320000ccb300c81507007e
:1052ac000e80e8008e80e8001108e900900078007c
:1052bc00110798001e0090000000e00003003a0067
:1052cc00f007210092150700020037006900470023
:1052dc008f15070051fe07007a0047001000fb00f5
:1052ec006101b900f0ff2f00f1ff2f000201400017
:1052fc0083814800e001200001002000800f510054
:10530c00818f5900e7033e00020601001e003700a2
:10531c004200370060003700e2033700e10337003a
:10532c00e0033700df033700de033700dd0337000f
:10533c00dc0337007d003700da033700d903370070
:10534c009d013700dc0137001b0237005a02370081
:10535c0099023700d802370017033700560337007d
:10536c00d0033700cf033700ce033700cd0337000f
:10537c00cc033700cb033700ca033700c90337000f
:10538c00c8033700980337002e5890009e407800d1
:10539c0080cf50000a0032002e599000024f780046
:1053ac0000c8b30086150700a05529005815070042
:1053bc0000ccb30082150700100a21005415070019
:1053cc00d0202100704090000004e0000200320068
:1053dc0030c0b300205f9800d020210060409000c6
:1053ec000004e0000200320020c0b300205f9800ef
:1053fc00d0202100404090000004e0000200320068
:10540c00b0c0b300205f9800d02021005040900025
:10541c000004e0008a033200a60337002e589000e7
:10542c009e40780080cf50000a0032002e5a900027
:10543c00044f780000c8b30061150700b05629006e
:10544c003315070000ccb3005d150700100a2100ce
:10545c002f150700d0202100704090000004e000c0
:10546c000200320010c0b300205f9800d020210051
:10547c00604090000004e0000200320030c0b30035
:10548c00205f9800d0202100504090000004e000e4
:10549c006d033200870337002e5890009e40780031
:1054ac0080cf50000a003200ae5a9000054f7800b1
